:10000000BFC00000D8C00000D6C00000D4C00000AF
:10001000D2C00000D0C00000CEC00000CCC00000A4
:10002000CAC00000C8C0000032C300009CC300006A
:10003000C2C00000C0C00000BEC00000BCC00000C4
:10004000BAC00000B8C00000B6C00000B4C00000D4
:10005000B2C0000066C20000AEC00000ACC000002C
:10006000AAC00000A8C00000A6C00000A4C00000F4
:10007000A2C00000A0C000009EC000009CC0000004
:100080009AC0000098C0000096C0000094C0000014
:1000900092C0000090C000008EC000008CC0000024
:1000A0008AC0000088C0000086C000000001000077
:1000B000E3001200020000F50022002200001701F8
:1000C0003F00210000070109000300005601040160
:1000D0000309045A0110020309046C011200000113
:1000E000C106001201000200000020C0167C0400BE
:1000F000010102000109022200010100C0320904CD
:1001000000000103010100092111010001223F004B
:100110000705830308000105010906A10175019582
:1001200008050719E029E7150025018102950175E9
:1001300008810395057501050819012905910295A6
:1001400001750391039506750815002568050719C3
:100150000029688100C00403090410034D006600F3
:1001600067004E0061006D006500000012034B0047
:100170006500790062006F00610072006400000099
:1001800011241FBECFEFDAE0DEBFCDBF17E0A0E045
:10019000B1E0E6E7FBE002C005900D92A633B1079F
:1001A000D9F718E0A6E3B7E001C01D92AE30B10761
:1001B000E1F713D1DEC424CFABEDB6E040E050E070
:1001C000FA01E954F94F0190F081E02D2D91922F21
:1001D0009095808189238083FA01ED53F94F019036
:1001E000F081E02D8081822B80834E5F5F4F4C3009
:1001F000510531F7A5E2B7E020E030E0F901EF5119
:10020000F94F0190F081E02D80819D91892B8083B1
:10021000F901ED5FF84F0190F081E02D8081892B8D
:1002200080832E5F3F4F2232310541F780E090E01E
:10023000FC01E855F84F1082FC01EE5BF84F10828C
:10024000019686369105A1F70895CF93DF9320910B
:10025000070130910801ACE0B1E0C9EAD6E0EC91C9
:10026000F0E0E855F84F8081882311F0288139812A
:100270001196229681E0A331B80789F730930801DF
:1002800020930701DF91CF91089580E8809361006A
:10029000109261008CD190DF46D45DD49FD1882329
:1002A000E9F320E137E240E951E0CA010197F1F7B3
:1002B00021503040D1F778940895E0910B01F0E09F
:1002C000E855F84F8081882349F540910701509106
:1002D000080180E090E00EC0F0E0EE0FFF1FE40F99
:1002E000F51F2081FC01E85CF84F208301968630E1
:1002F000910579F0FC01E050FF4FE081EF3F61F79D
:1003000020E0FC01E85CF84F2083019686309105DF
:1003100089F7809136078093370763C196CFAC0188
:10032000FC01E855F84F1082FC01EE5BF84F10829B
:10033000880F991FE0910701F0910801E80FF91F5C
:100340000190F081E02DF0FD17C0E0E0F1E020E049
:10035000808190E08417950761F02F5F31962630F9
:10036000B9F7ABCFE22FF0E0E050FF4F81818083FF
:100370002F5F2630B8F3A1CF9E2F9095809136073E
:1003800089238093360799CF9C01FC01E855F84FEB
:1003900081E08083F901EE5BF84F1082C901880F7C
:1003A000991FE0910701F0910801E80FF91F0190F2
:1003B000F081E02DF0FD0BC0E4E0F1E0808181836D
:1003C000319780E0EF3FF807C9F7218376CF80911E
:1003D00036078E2B8093360770CF2F923F924F9225
:1003E0005F926F927F928F929F92AF92BF92CF92C5
:1003F000DF92EF92FF920F931F93DF93CF93CDB7CE
:10040000DEB7C656D0400FB6F894DEBF0FBECDBFE4
:100410003CDF19821A821B821C821D821E82552497
:10042000AA243E010894611C711CE5E04E2E852D26
:1004300090E04C01880C991CF401ED5FF84F01909D
:10044000F081E02D65E2262E67E0362E280E391E5B
:10045000D1019C919095808189238083842D8A95F8
:10046000F1F75FECC52E56E0D52EEE24FF2424C014
:10047000BB24B394022F10E0F301E00FF11F808141
:10048000882359F4F801E855F84F8081882309F44E
:1004900044C0F801EE5BF84F1082060D171DF801FD
:1004A000B0820894E11CF11C82E090E0C80ED91ED5
:1004B00096E0E916F104D9F02A2D2E0DBB24D601C1
:1004C000ED91FC91D701A552B94F80819C91892370
:1004D00079F2022F10E0F301E00FF11F80818823F1
:1004E000E1F2F801EE5BF84FB0E8B083D6CFA6E0BA
:1004F000AA0EE3E0F7E08E0E9F1ED401ED91FC9171
:100500008081D1019C91892B80835394B0E1B515F2
:1005100008F08DCF5524AA248ACF822F90E034DFB3
:10052000BCCF1F920F920FB60F9211240F931F93FF
:100530002F933F934F935F936F937F938F939F93EB
:10054000AF93BF93CF93DF93EF93FF9300E010E05F
:1005500008C08881869588830F5F1F4F0636110576
:1005600081F0E801CE5BD84F8881813091F7C801D6
:10057000D6DE8881869588830F5F1F4F063611056A
:1005800081F7B3D2FF91EF91DF91CF91BF91AF91FE
:100590009F918F917F916F915F914F913F912F919B
:1005A0001F910F910F900FBE0F901F90189581E033
:1005B0008093D70080EA8093D80082E189BD09B496
:1005C00000FEFDCF80E98093D8001092E0001092E9
:1005D0003F078CE08093E2007894089580913F0774
:1005E000089580913F07882309F44FC09FB7F8947E
:1005F00083E08093E9002091E4008091E80085FD8C
:100600001EC09FBF80913F07882309F43EC02E5C27
:100610008091E4008217C9F133E009C09FBF809147
:100620003F07882391F18091E400821771F19FB711
:10063000F8943093E9008091E80085FFEFCF809136
:1006400037078093F1001092F10080913807809372
:10065000F100809139078093F10080913A078093EF
:10066000F10080913B078093F10080913C078093DB
:10067000F10080913D078093F1008AE38093E800C8
:10068000109240079FBF80E008958FEF08951F925A
:100690000F920FB60F9211242F938F939F938091F7
:1006A000E1001092E100982F83FF0FC01092E90043
:1006B00081E08093EB001092EC0082E28093ED00E9
:1006C00088E08093F00010923F0792FF44C0809131
:1006D0003F07882309F43FC0209109012223D9F163
:1006E000809141078F5F8093410790E08370907005
:1006F000892B89F583E08093E9008091E80085FFEC
:100700002AC0809140078F5F80934007281719F512
:1007100010924007809137078093F1001092F1000A
:10072000809138078093F100809139078093F10020
:1007300080913A078093F10080913B078093F1000C
:1007400080913C078093F10080913D078093F100F8
:100750008AE38093E8009F918F912F910F900FBEB5
:100760000F901F9018951F920F920FB60F921124A1
:100770000F931F932F933F934F935F936F937F93A9
:100780008F939F93AF93BF93EF93FF931092E900E2
:100790008091E80083FF45C04091F1003091F10065
:1007A0008091F100682F70E02091F100922F80E09D
:1007B000682B792B8091F100A82FB0E02091F100F7
:1007C000922F80E0A82BB92B1091F1000091F1003D
:1007D00082EF8093E8003630D1F1353009F4C0C0A3
:1007E000393009F493C0383009F4C6C0332381F49A
:1007F0008091E80080FFFCCF423809F418C180E006
:100800008093F1001092F1008EEF8093E8000CC00D
:10081000313009F4E3C0333009F4E0C0AB2B09F404
:10082000BAC081E28093EB00FF91EF91BF91AF914D
:100830009F918F917F916F915F914F913F912F91F8
:100840001F910F910F900FBE0F901F90189523EBE3
:1008500030E0A9014550504008C0295F3F4F495F33
:100860005F4FF0E0243E3F07E1F2F90137978591B1
:1008700094916817790789F7FA0185919491A817DF
:10088000B90759F79A012E5F3F4FF90145915491ED
:100890002E5F3F4FF9016491212F30E0902F80E0CF
:1008A000282B392B2F3F310519F010F02FEF30E0B6
:1008B000261708F4622F7EEF8091E800282F30E0A1
:1008C000C90185709070892BB9F322FDADCF262F19
:1008D000613208F4A8C020E280E090E0FA01E80F5D
:1008E000F91FE491E093F10001962817B9F7215020
:1008F000822F90E02F5F0196480F591F621B709363
:10090000E8006623C9F62032B9F28ECF442309F0FD
:1009100085CF60933F078EEF8093E8008DED90E0E8
:1009200021E02093E900FC010196E491E093EB00C3
:10093000EE2369F0AC014F5F5F4FFC01849180931F
:10094000EC00CA010196FA0134913093ED002F5F5B
:10095000253039F78EE18093EA001092EA0064CFE7
:100960008EEF8093E8008091E80080FFFCCF862F17
:1009700080688093E30058CF403809F04FCF8091D2
:10098000E80080FFFCCF80913F078093F1008EEF5D
:100990008093E80049CF413A09F45AC0413209F046
:1009A00040CF393061F03A3009F497C03B3009F05C
:1009B00038CF60930A018EEF8093E80035CF8091A5
:1009C000E80082FFFCCF8091F10080933E078BEF1F
:1009D0008093E8008EEF8093E80026CF423009F044
:1009E0001DCF6115710509F019CF2A2F2F77822F9E
:1009F0008150843008F012CF8EEF8093E80020936E
:100A0000E900333009F40DCF89E18093EB0081E0F8
:100A100090E002C0880F991F2A95E2F78093EA00C0
:100A20001092EA0001CF662309F056CF67CFA0935A
:100A3000E9008091EB0090E09695879592958295DC
:100A40008F7089279F70892781701092E900D8CE16
:100A5000313089F03230A9F1333009F0E2CE8091A3
:100A6000E80080FFFCCF80910A018093F1008EEFB7
:100A70008093E800D9CE8091E80080FFFCCF809180
:100A800037078093F1001092F1008091380780932E
:100A9000F100809139078093F10080913A078093AB
:100AA000F10080913B078093F10080913C07809397
:100AB000F10080913D078093F1008EEF8093E80074
:100AC000B3CE8091E80080FFFCCF80910901809334
:100AD000F1008EEF8093E800A7CE70930901109289
:100AE00040078EEF8093E8009FCE85B120913E07AE
:100AF00040913E0730E00090140102C0220F331FE6
:100B00000A94E2F720788F73282B50E000901301AD
:100B100002C0440F551F0A94E2F75595479540745B
:100B2000242B25B90895E0E8F0E080818962808374
:100B3000E1E8F0E080818C6080838AEF90E0909320
:100B40008B0080938A0090938D0080938C0085B1F8
:100B50008F7385B9089584B5826084BD85B584603E
:100B600085BDEEE6F0E080818260808380E287BD13
:060B70000895F894FFCF88
:100B7600FFFFFFFFFFFFFF15017D014E3A040A103C
:100B8600161C2206050101020139002B001E002950
:100B96000008016400040014001F00350004011D54
:100BA6000016001A0020003A0000001B000700088B
:100BB6000021003B00000006000900150022003C51
:100BC60000000019000A00170023003D0000000580
:100BD600000B001C0024003E002C0011000D001824
:100BE6000025003F00000010000E000C002600400B
:100BF60000000036000F00120027004100400137B8
:100C060000330013002D0042008001380034002F0D
:100C1600002E004300650000003100300000004453
:100C26000000002001280031002A00450050000085
:100C36000000004C00490046005100520000004DE3
:100C4600004A0047004F00000000004E004B0048DD
:100C5600000101020139002B001E00290008016471
:100C660000040014001F00350004011D0016001AC0
:100C76000020003A0000001B000700080021003B8E
:100C860000000006000900150022003C00000019C3
:100C9600000A00170023003D00000005000B001CA1
:100CA6000024003E002C0011000D00180025003F16
:100CB60000000010000E000C002600400000003668
:100CC600000F0012002700410040013700330013D7
:100CD600002D0042008001380034002F002E004312
:100CE60000650000003100300000004400000020D4
:100CF60001280031002A004500620059005C005FAF
:100D0600005400460063005A005D0060005500472D
:100D16000057005B005E00610056004800010102BA
:100D26000139002B001E002900080164000400148C
:100D3600001F00350004011D0016001A0020003AAD
:100D46000000001B000700080021003B0000000611
:100D5600000900150022003C00000019000A0017D7
:100D66000023003D00000005000B001C0024003E8F
:100D7600002C0011000D00180025003F0000001097
:100D8600000E000C0026004000000036000F001286
:100D9600002700410040013700330013002D0042B8
:100DA600008001380034002F002E0043006500004B
:100DB60000310030000000440010012001280031FD
:100DC600002A0045005000000000004C0049004683
:100DD600005100520000004D004A0047004F00003D
:100DE6000000004E004B0048000101020139002BB3
:100DF600001E00290008016400040014001F0035CD
:100E06000004011D0016001A0020003A0000001B15
:100E1600000700080021003B00000006000900153D
:100E26000022003C00000019000A00170023003DC4
:100E360000000005000B001C0024003E002C0011E1
:100E4600000D00180025003F00000010000E000CE9
:100E56000026004000000036000F00120027004167
:100E66000040013700330013002D00420080013896
:100E76000034002F002E00430065000000310030D2
:100E8600000000440010012001280031002A00451E
:100E9600005000000000004C00490046005100527E
:100EA6000000004D004A0047004F00000000004EC1
:100EB600004B0048000101020139002B001E0029E9
:100EC6000008016400040014001F00350004011D21
:100ED6000016001A0020003A0000001B0007000858
:100EE6000021003B00000006000900150022003C1E
:100EF60000000019000A00170023003D000000054D
:100F0600000B001C0024003E002C0011000D0018F0
:100F16000025003F00000010000E000C00260040D7
:100F260000000036000F0012002700410040013784
:100F360000330013002D0042008001380034002FDA
:100F4600002E004300650000003100300000004420
:100F56000010012001280031002A00450050000041
:100F66000000004C00490046005100520000004DB0
:100F7600004A0047004F00000000004E004B0048AA
:100F8600000101020139002B001E0029000801643E
:100F960000040014001F00350004011D0016001A8D
:100FA6000020003A0000001B000700080021003B5B
:100FB60000000006000900150022003C0000001990
:100FC600000A00170023003D00000005000B001C6E
:100FD6000024003E002C0011000D00180025003FE3
:100FE60000000010000E000C002600400000003635
:100FF600000F0012002700410040013700330013A4
:10100600002D0042008001380034002F002E0043DE
:10101600006500000031003000000044001001208F
:1010260001280031002A0045005000000000004C55
:1010360000490046005100520000004D004A00479A
:10104600004F00000000004E004B00480001010266
:101056000139002B001E0029000801640004001459
:10106600001F00350004011D0016001A0020003A7A
:101076000000001B000700080021003B00000006DE
:10108600000900150022003C00000019000A0017A4
:101096000023003D00000005000B001C0024003E5C
:1010A600002C0011000D00180025003F0000001064
:1010B600000E000C0026004000000036000F001253
:1010C600002700410040013700330013002D004285
:1010D600008001380034002F002E00430065000018
:1010E60000310030000000440010012001280031CA
:1010F600002A0045005000000000004C0049004650
:10110600005100520000004D004A0047004F000009
:101116000000004E004B0048001501E101AD0279C8
:101126000345041105DD05240024002400240024C1
:101136000024002500250025002500250025002384
:1011460000230023002300230023000102040810CB
:10115600202A00270027002A002A002D0030003010
:101166000030003000300030002A002A002A002A11
:10117600002A002B00280028002B002B002E00310F
:1011860000310031003100310031002B002B002BE3
:10119600002B002B0020804010014001021020404F
:0611A600808040020408F5
:00000001FF
