:10000000BFC00000D8C00000D6C00000D4C00000AF
:10001000D2C00000D0C00000CEC00000CCC00000A4
:10002000CAC00000C8C0000005C3000063C30000D0
:10003000C2C00000C0C00000BEC00000BCC00000C4
:10004000BAC00000B8C00000B6C00000B4C00000D4
:10005000B2C0000035C10000AEC00000ACC000005E
:10006000AAC00000A8C00000A6C00000A4C00000F4
:10007000A2C00000A0C000009EC000009CC0000004
:100080009AC0000098C0000096C0000094C0000014
:1000900092C0000090C000008EC000008CC0000024
:1000A0008AC0000088C0000086C000000001000077
:1000B000E3001200020000F50022002200001701F8
:1000C0003F00210000070109000300005601040160
:1000D0000309045A0110020309046C011200000113
:1000E000C106001201000200000020C0167C0400BE
:1000F000010102000109022200010100C0320904CD
:1001000000000103010100092111010001223F004B
:100110000705830308000105010906A10175019582
:1001200008050719E029E7150025018102950175E9
:1001300008810395057501050819012905910295A6
:1001400001750391039506750815002568050719C3
:100150000029688100C00403090410034D006600F3
:1001600067004E0061006D006500000012034B0047
:100170006500790062006F00610072006400000099
:1001800011241FBECFEFDAE0DEBFCDBF12E0A0E04A
:10019000B1E0E0ECFAE002C005900D92A435B107A1
:1001A000D9F713E0A4E5B2E001C01D92AC32B1076B
:1001B000E1F72AD183C424CFCF93DF93E0E0F1E0CD
:1001C000C6E5D2E009C0B0E0A159BE4F8C91899339
:1001D00081E0E630F80749F0A191AF3FA1F780E058
:1001E000899381E0E630F807B9F780915402809353
:1001F0005502D8D1DF91CF910895282F30E0F90131
:10020000EA53FD4F91E09083F901E05AFD4F1082CF
:10021000F901E75FFE4F90819923B9F490910401B1
:100220009093050190910301909304019091020134
:10023000909303019091010190930201909100012C
:100240009093010180930001B7CF21593E4F8091D7
:100250005402F9019081892B80935402ADCF282F4D
:1002600030E0F901EA53FD4F1082F901E05AFD4FE9
:100270001082F901E75FFE4F9081992351F4E0E08D
:10028000F1E090E02191281779F09F5F9630D1F747
:1002900093CF21593E4FF90190819095809154025E
:1002A00089238093540288CF963090F7E92FF0E0AD
:1002B000E050FF4F818180839F5F9630B9F77CCFFC
:1002C0001F920F920FB60F9211240F931F932F932B
:1002D0003F934F935F936F937F938F939F93AF93CE
:1002E000BF93CF93DF93EF93FF93C0E0D0E008C0BC
:1002F000F8018081869580832196C636D10589F0E4
:100300008E01005A1D4FF8018081813089F78C2FB2
:10031000A6DFF8018081869580832196C636D105B7
:1003200079F790D3FF91EF91DF91CF91BF91AF918A
:100330009F918F917F916F915F914F913F912F91FD
:100340001F910F910F900FBE0F901F901895CF9394
:10035000DF93E5EDF1E089EF91E061EE71E0A191CD
:10036000B191EC013991CE01432F40952C9124237A
:100370002C93EB01A991B991BE012C91232B2C93C5
:1003800021E0E13EF20759F7EFEFF1E083E492E07C
:1003900041E252E0A191B191EC013991CE012C9151
:1003A000232B2C93EA01A991B991AE012C91232B17
:1003B0002C9322E0E132F20769F7E6ECF2E080E00C
:1003C00090E01192DC01A05ABD4F1C920196863636
:1003D0009105B9F7DF91CF91089580E8809361008E
:1003E00010926100C5D0B3DF40D35AD3D8D0882350
:1003F000E9F38FEF93EDA0E381509040A040E1F747
:1004000000C00000789408956F927F928F929F921F
:10041000AF92BF92CF92DF92EF92FF920F931F9312
:10042000DF93CF93CDB7DEB7CB56D0400FB6F8945D
:10043000DEBF0FBECDBFD1DF19821A821B821C82A4
:100440001D821E8230E020E05E010894A11CB11CD8
:10045000E0E88E2E822F90E0AC01440F551FFA0188
:10046000EF5DFD4F0190F081E02D63E4662E62E0C8
:10047000762E680E791ED3019C91909580818923F8
:100480008083B5E0BA95F1F700009DEEE92E91E08A
:10049000F92E89EFC82E81E0D82E932E13C090E05C
:1004A000092D10E0F501E00FF11F80818823D1F5BF
:1004B000F501E00FF11F90839394B9EFEB16B1E0D3
:1004C000FB06F1F0D701ED91FD917D01D6018D91F3
:1004D0006D019081892391E011F7092D10E0F5015C
:1004E000E00FF11F8081882319F7F801EA53FD4FCF
:1004F00080818823E1F0F801E05AFD4F1082D8CFC7
:100500003A5F4F5D5D4FDA01ED91FC918081D3013F
:100510009C91892B80832F5F213108F49BCF30E0A1
:1005200020E098CFF801E05AFD4F8082C1CF892D9D
:10053000A8962FAFA897AA963FAFAA97AB964FAFB2
:10054000AB97AC965FAFAC97A9969FAFA99755DED6
:10055000A8962FADA897AA963FADAA97AB964FAD98
:10056000AB97AC965FADAC97A9969FADA997A0CF7E
:1005700081E08093D70080EA8093D80082E189BD32
:1005800009B400FEFDCF80E98093D8001092E0000E
:1005900010925D028CE08093E2007894089580913F
:1005A0005D02089580915D02882309F43FC08FB7F2
:1005B000F89493E09093E9002091E4009091E80092
:1005C00095FD1DC08FBF80915D02882379F12E5C5F
:1005D0008091E400821751F133E009C08FBF809110
:1005E0005D02882319F18091E400821709F18FB729
:1005F000F8943093E9009091E80095FFEFCF909147
:1006000055029093F1001092F100E6E5F2E091912D
:100610009093F10092E0EC35F907C9F79AE39093D3
:10062000E80010925E028FBF80E008958FEF08957A
:100630008FEF08951F920F920FB60F9211242F93F0
:100640008F939F93EF93FF938091E1001092E100CD
:1006500083FF0FC01092E90091E09093EB0010929D
:10066000EC0092E29093ED0098E09093F0001092ED
:100670005D0282FF20C080915D028823E1F020911D
:1006800007012223C1F080915F028F5F80935F0298
:1006900090E083709070009771F483E08093E9009C
:1006A0008091E80085FF07C080915E028F5F809394
:1006B0005E02281751F0FF91EF919F918F912F913A
:1006C0000F900FBE0F901F90189510925E028091B0
:1006D00055028093F1001092F100E6E5F2E081917D
:1006E0008093F10082E0EC35F807C9F78AE3809344
:1006F000E800E1CF1F920F920FB60F9211240F93D3
:100700001F932F933F934F935F936F937F938F9399
:100710009F93AF93BF93EF93FF931092E900809163
:10072000E80083FF4FC0E091F1006091F10020915B
:10073000F10030E04091F100942F80E0282B392B1C
:100740004091F10050E07091F100972F80E0482B2C
:10075000592B0091F1001091F10082EF8093E80095
:100760006630E1F0653009F4D5C0693009F440C065
:10077000683009F4DAC0662309F063C08091E800AC
:1007800080FFFCCFE23809F44EC180E08093F10095
:100790001092F1008EEF8093E80017C083EB90E099
:1007A000BC0165507040FC013797A591B4912A17A0
:1007B0003B0709F465C00796695F7F4FF0E0843E10
:1007C0009F0789F781E28093EB00FF91EF91BF9142
:1007D000AF919F918F917F916F915F914F913F91D9
:1007E0002F911F910F910F900FBE0F901F90189592
:1007F000EE2369F520935D028EEF8093E80041E0DF
:100800008DED90E04093E900FC010196E491E093C6
:10081000EB00EE2369F09C012F5F3F4FFC018491B8
:100820008093EC00C9010196F90124912093ED0019
:100830004F5F453039F78EE18093EA001092EA006D
:10084000C4CF613009F485C0633009F482C041151A
:10085000510509F0B7CFE13A09F4AFC0E13209F030
:10086000B1CF693009F49AC06A3009F4E6C06B3040
:1008700009F0A8CF209308018EEF8093E800A5CF60
:10088000FB01A591B4914A175B0709F094CF6E5F05
:100890007F4FFB0185919491282F392F6E5F7F4FF9
:1008A000FB016491802F90E0512F40E0842B952B29
:1008B0008F3F910511F008F049C0861708F444C035
:1008C0007EEF8091E80090E0AC01457050704115DA
:1008D0005105B9F382FD79CF562F6132C0F050E255
:1008E000C901452FFC010196E491E093F1004150CC
:1008F000C9F7852F815090E00196280F391F651B9D
:100900007093E8006623E9F65032D9F25ECF662391
:1009100039F7F5CF8EEF8093E8008091E80080FFF3
:10092000FCCF20682093E30050CFE03809F08FCF50
:100930008091E80080FFFCCF80915D028093F10000
:100940008EEF8093E80041CF682FBACF8FEF90E011
:10095000B4CFE23009F07BCF2115310509F077CF14
:10096000742F7F77872F8150843008F070CF8EEFFF
:100970008093E8007093E900633009F423CF89E1A4
:100980008093EB0081E090E002C0880F991F7A9578
:10099000E2F78093EA001092EA0017CF8091E80016
:1009A00082FFFCCF8091F10080935C028BEF8093FB
:1009B000E8008EEF8093E80008CF613089F0623064
:1009C00031F1633009F0FECE8091E80080FFFCCF6A
:1009D000809108018093F1008EEF8093E800F5CEBE
:1009E0008091E80080FFFCCF809155028093F10058
:1009F0001092F100E6E5F2E081918093F10082E04F
:100A0000EC35F807C9F78EEF8093E800DECE8091D1
:100A1000E80080FFFCCF809107018093F1008EEF0A
:100A20008093E800D2CE4093E9009091EB0081E002
:100A300095FF80E01092E900A9CE30930701109253
:100A40005E02E1CF95B180915C028295880F807C37
:100A50009F73892B85B994B180915C028295880F30
:100A6000807C9F73892B84B90895E0E8F0E0808151
:100A700089628083E1E8F0E080818C6080838AEF86
:100A800090E090938B0080938A0090938D008093E8
:100A90008C0084B18F7384B985B18F7385B9089543
:100AA00084B5826084BD85B5846085BDEEE6F0E0E6
:100AB00080818260808380E287BD0895F894FFCFB3
:100AC000FFFFFFFFFFFFFF7D0101010000000001AC
:100AD0000000000000010000000000000000000015
:100AE0000000000000000000000000000000000006
:100AF00000000000000000000000000000000000F6
:100B000000000000000100000000000100000000E3
:100B100000000000000000010100000000000000D3
:100B200000000000000000000000000000000001C4
:100B300002392B1E29086404141F35041D161A20BF
:100B40003A001B0708213B00060915223C00190A40
:100B500017233D00050B1C243E2C110D18253F00CA
:100B6000100E0C264000360F122741403733132D4C
:100B7000428038342F2E4365003130004410202845
:100B8000312A455000004C49465152004D4A474FCA
:100B900000004E4B4824002400240024002400249C
:100BA0000025002500250025002500250023002321
:100BB0000023002300230023000102040810202A40
:100BC00000270027002A002A002D003000300030C6
:100BD000003000300030002A002A002A002A002AB3
:100BE000002B00280028002B002B002E00310031A4
:100BF0000031003100310031002B002B002B002B85
:100C0000002B002080401001400102102040808015
:040C10004002040892
:00000001FF
